:100000000C947A000C9409030C9409030C940903D2
:100010000C9409030C9409030C94ED020C9409034D
:100020000C9409030C9409030C9409030C94090320
:100030000C9409030C9409030C9409030C94090310
:100040000C9409030C9409030C9409030C94090300
:100050000C9409030C9409030C94F7020C94090303
:100060000C9409030C9409030C9409030C940903E0
:100070000C9409030C9479020C9409030C94090361
:100080000C9409030C9409030C9401030C940903C8
:100090000C9409030C9409030C9409030C940903B0
:1000A0000C9409030C9409030C9409030C940903A0
:1000B0000C94F2020C94FC020C9449020C94090377
:1000C0000C94B9010C94E9010C9419020C940903E5
:1000D0000C9409030C9409030C9409030C94090370
:1000E0000C9409030C940903400040028040024034
:1000F0000A00062A11241FBECFEFCDBFDFE7DEBF07
:10010000E8EEF0E040E019C0B791A7913791279150
:10011000079107FD0EC097918791EF01F92FE82F06
:100120000BBF07900D92A217B307D9F7FE011BBEB4
:1001300004C01D92A217B307E1F7E43FF40721F7CB
:0C0140000E9406030C94D402F894FFCF38
:10014C00CF93DF930E944B0140E054E0FA01108200
:10015C0020E234E0F901108280E494E060E4FC01D8
:10016C006083C0E6D4E01882A0E8B4E01C9260EA98
:10017C0074E0FB011082FA011482F9011482FC0173
:10018C0014821C8214961C921497FB011482FA019F
:10019C00108A118A128A138A148A158A168A178A67
:1001AC00F901108A118A128A138A148A158A168AFE
:1001BC00178AFC01108A118A128A138A148A158AEA
:1001CC00168A178A188A198A1A8A1B8A1C8A1D8A07
:1001DC001E8A1F8A50961C92509751961C925197CA
:1001EC0052961C92529753961C92539754961C926B
:1001FC00549755961C92559756961C92569757960F
:10020C001C925797FB01108A118A128A138A148A3E
:10021C00158A168A178AFA0113861686158614868D
:10022C00F9011386168615861486FC01138616862C
:10023C00158614861B861E861D861C861B961C9294
:10024C001B971E961C921E971D961C921D971C9612
:10025C001C92FB011386168615861486E0EEF5E0DB
:10026C00118611821082148288E086831782108690
:10027C0015821282138212868DE093E080930040E7
:0A028C0090930140DF91CF91089597
:10029600E0E1F4E0808188608193E83184E0F8074A
:1002A600C9F7E0E3F4E0808188608193E83384E075
:1002B600F807C9F7E0E5F4E0808188608193E835C6
:1002C60084E0F807C9F7E0E7F4E08081886081936D
:1002D600E83784E0F807C9F7E0E9F4E08081886050
:1002E6008193E83984E0F807C9F7E0EBF4E0808110
:0E02F60088608193E83B84E0F807C9F708951B
:1003040040E068ED80E690E00E94E80247E068ED96
:1003140081E690E00E94E80240E068ED82E690E029
:100324000E94E80240E068ED83E690E00E94E80263
:100334004CE068ED88E690E00E94E80240E068ED59
:1003440089E690E00E94E80240E068ED88E790E0EA
:100354000E94E80240E068ED80E790E00E94E80235
:0E03640040E068ED8CE790E00E94E80208950A
:100372001F920F920FB60F9211240BB60F922F936A
:100382003F934F935F936F937F938F939F93AF931B
:10039200BF93EF93FF93E0910840F09109403097AB
:1003A20009F0099580E180934B0AFF91EF91BF918B
:1003B200AF919F918F917F916F915F914F913F91FB
:1003C2002F910F900BBE0F900FBE0F901F9018959C
:1003D2001F920F920FB60F9211240BB60F922F930A
:1003E2003F934F935F936F937F938F939F93AF93BB
:1003F200BF93EF93FF93E0910640F091074030974F
:1004020009F0099580E280934B0AFF91EF91BF9129
:10041200AF919F918F917F916F915F914F913F919A
:100422002F910F900BBE0F900FBE0F901F9018953B
:100432001F920F920FB60F9211240BB60F922F93A9
:100442003F934F935F936F937F938F939F93AF935A
:10045200BF93EF93FF93E0910440F09105403097F2
:1004620009F0099580E480934B0AFF91EF91BF91C7
:10047200AF919F918F917F916F915F914F913F913A
:100482002F910F900BBE0F900FBE0F901F901895DB
:100492001F920F920FB60F9211240BB60F922F9349
:1004A2003F934F935F936F937F938F939F93AF93FA
:1004B200BF93EF93FF93E0910240F0910340309796
:1004C20009F0099581E080934B0AFF91EF91BF916A
:1004D200AF919F918F917F916F915F914F913F91DA
:1004E2002F910F900BBE0F900FBE0F901F9018957B
:1004F2001F920F920FB60F9211240BB60F922F93E9
:100502003F934F935F936F937F938F939F93AF9399
:10051200BF93EF93FF935E9B05C0E0910040F09183
:10052200014009958FEF8BB9FF91EF91BF91AF9188
:100532009F918F917F916F915F914F913F912F91F9
:0E0542000F900BBE0F900FBE0F901F901895DC
:10055000E0E4FAE08BED9FEF80A791A782A793A735
:100560002DEE3FE724A735A710A211A223E4218393
:1005700012821382148215821682178216861186C1
:100580001286138686A397A3178681E08083089539
:1005900040E068ED80E191E00E94E802E0E1F1E0F6
:0805A0001282138280E008952D
:1005A800EC010E9413030E941203CE010E9414035F
:0605B800CE010E940B03BE
:1005BE000E9482010E94A6000E94A8020E94C80208
:0205CE0008958E
:0A05D0001BBEFC0164BF40830895C8
:0A05DA008F938FEF83B98F9118956E
:0A05E4008F938FEF87B98F91189560
:0A05EE008F938FEF8FB98F9118954E
:0A05F8008F938FEF83BB8F9118954E
:0A0602008F938FEF87BB8F9118953F
:06060C000E94DF02FFCF97
:040612000C94000044
:040616000E94A4009A
:02061A00089541
:02061C0008953F
:02061E0008953D
:0206200008953B
:02062200089539
:02062400089537
:02062600089535
:02062800089533
:02062A001103BA
:02062C001003B9
:02062E000F03B8
:020630000E03B7
:02000004008278
:090000000000000000C000000037
:00000001FF
