:100000000C9474000C948B000C948B000C948B005B
:100010000C948B000C948B000C948B000C948B0034
:100020000C948B000C948B000C948B000C948B0024
:100030000C948B000C948B000C948B000C948B0014
:100040000C948B000C948B000C948B000C948B0004
:100050000C948B000C948B000C948B000C948B00F4
:100060000C948B000C948B000C948B000C948B00E4
:100070000C948B000C948B000C948B000C948B00D4
:100080000C948B000C948B000C948B000C948B00C4
:100090000C948B000C948B000C948B000C948B00B4
:1000A0000C948B000C948B000C948B000C948B00A4
:1000B0000C948B000C948B000C948B000C948B0094
:1000C0000C948B000C948B000C948B000C948B0084
:1000D0000C948B000C948B000C948B000C948B0074
:1000E0000C948B000C948B0011241FBECFEFCDBF5E
:1000F000DFE7DEBF0E948F000C948000F894FFCFF2
:10010000EC010E9491000E949000CE010E9492009A
:06011000CE010E948D00EB
:040116000C94000045
:04011A000E947E00C1
:02011E00FFCF11
:02012000089540
:0201220008953E
:0201240008953C
:00000001FF
